{
  "_format": "hh-sol-artifact-1",
  "contractName": "WallOfLove",
  "sourceName": "contracts/WallOfLove.sol",
  "abi": [
    {
      "inputs": [],
      "stateMutability": "nonpayable",
      "type": "constructor"
    },
    {
      "anonymous": false,
      "inputs": [
        {
          "indexed": true,
          "internalType": "address",
          "name": "from",
          "type": "address"
        },
        {
          "indexed": false,
          "internalType": "uint256",
          "name": "timestamp",
          "type": "uint256"
        },
        {
          "indexed": false,
          "internalType": "string",
          "name": "message",
          "type": "string"
        }
      ],
      "name": "NewMessage",
      "type": "event"
    },
    {
      "inputs": [],
      "name": "getAllMessages",
      "outputs": [
        {
          "components": [
            {
              "internalType": "address",
              "name": "sender",
              "type": "address"
            },
            {
              "internalType": "string",
              "name": "message",
              "type": "string"
            },
            {
              "internalType": "uint256",
              "name": "timestamp",
              "type": "uint256"
            }
          ],
          "internalType": "struct WallOfLove.Message[]",
          "name": "",
          "type": "tuple[]"
        }
      ],
      "stateMutability": "view",
      "type": "function"
    },
    {
      "inputs": [
        {
          "internalType": "string",
          "name": "_message",
          "type": "string"
        }
      ],
      "name": "sendMessage",
      "outputs": [],
      "stateMutability": "nonpayable",
      "type": "function"
    }
  ],
  "bytecode": "0x608060405234801561001057600080fd5b5061003c604051806060016040528060248152602001610ace6024913961004160201b6102e51760201c565b6101c4565b6100dd816040516024016100559190610142565b6040516020818303038152906040527f41304fac000000000000000000000000000000000000000000000000000000007bffffffffffffffffffffffffffffffffffffffffffffffffffffffff19166020820180517bffffffffffffffffffffffffffffffffffffffffffffffffffffffff83818316178352505050506100e060201b60201c565b50565b60008151905060006a636f6e736f6c652e6c6f679050602083016000808483855afa5050505050565b600061011482610164565b61011e818561016f565b935061012e818560208601610180565b610137816101b3565b840191505092915050565b6000602082019050818103600083015261015c8184610109565b905092915050565b600081519050919050565b600082825260208201905092915050565b60005b8381101561019e578082015181840152602081019050610183565b838111156101ad576000848401525b50505050565b6000601f19601f8301169050919050565b6108fb806101d36000396000f3fe608060405234801561001057600080fd5b50600436106100365760003560e01c8063469c81101461003b57806353f5e38014610057575b600080fd5b610055600480360381019061005091906104b2565b610075565b005b61005f610194565b60405161006c919061066b565b60405180910390f35b600160405180606001604052803373ffffffffffffffffffffffffffffffffffffffff16815260200183815260200142815250908060018154018082558091505060019003906000526020600020906003020160009091909190915060008201518160000160006101000a81548173ffffffffffffffffffffffffffffffffffffffff021916908373ffffffffffffffffffffffffffffffffffffffff16021790555060208201518160010190805190602001906101349291906103a7565b506040820151816002015550503373ffffffffffffffffffffffffffffffffffffffff167f0ff94fec3112de81726d79117e091c7c9d47da8a38c73e8cec7ee350a61898a642836040516101899291906106af565b60405180910390a250565b60606001805480602002602001604051908101604052809291908181526020016000905b828210156102dc57838290600052602060002090600302016040518060600160405290816000820160009054906101000a900473ffffffffffffffffffffffffffffffffffffffff1673ffffffffffffffffffffffffffffffffffffffff1673ffffffffffffffffffffffffffffffffffffffff16815260200160018201805461024190610824565b80601f016020809104026020016040519081016040528092919081815260200182805461026d90610824565b80156102ba5780601f1061028f576101008083540402835291602001916102ba565b820191906000526020600020905b81548152906001019060200180831161029d57829003601f168201915b50505050508152602001600282015481525050815260200190600101906101b8565b50505050905090565b61037b816040516024016102f9919061068d565b6040516020818303038152906040527f41304fac000000000000000000000000000000000000000000000000000000007bffffffffffffffffffffffffffffffffffffffffffffffffffffffff19166020820180517bffffffffffffffffffffffffffffffffffffffffffffffffffffffff838183161783525050505061037e565b50565b60008151905060006a636f6e736f6c652e6c6f679050602083016000808483855afa5050505050565b8280546103b390610824565b90600052602060002090601f0160209004810192826103d5576000855561041c565b82601f106103ee57805160ff191683800117855561041c565b8280016001018555821561041c579182015b8281111561041b578251825591602001919060010190610400565b5b509050610429919061042d565b5090565b5b8082111561044657600081600090555060010161042e565b5090565b600061045d61045884610710565b6106df565b90508281526020810184848401111561047557600080fd5b6104808482856107e2565b509392505050565b600082601f83011261049957600080fd5b81356104a984826020860161044a565b91505092915050565b6000602082840312156104c457600080fd5b600082013567ffffffffffffffff8111156104de57600080fd5b6104ea84828501610488565b91505092915050565b60006104ff83836105fd565b905092915050565b610510816107a6565b82525050565b600061052182610750565b61052b8185610773565b93508360208202850161053d85610740565b8060005b85811015610579578484038952815161055a85826104f3565b945061056583610766565b925060208a01995050600181019050610541565b50829750879550505050505092915050565b60006105968261075b565b6105a08185610784565b93506105b08185602086016107f1565b6105b9816108b4565b840191505092915050565b60006105cf8261075b565b6105d98185610795565b93506105e98185602086016107f1565b6105f2816108b4565b840191505092915050565b60006060830160008301516106156000860182610507565b506020830151848203602086015261062d828261058b565b9150506040830151610642604086018261064d565b508091505092915050565b610656816107d8565b82525050565b610665816107d8565b82525050565b600060208201905081810360008301526106858184610516565b905092915050565b600060208201905081810360008301526106a781846105c4565b905092915050565b60006040820190506106c4600083018561065c565b81810360208301526106d681846105c4565b90509392505050565b6000604051905081810181811067ffffffffffffffff8211171561070657610705610885565b5b8060405250919050565b600067ffffffffffffffff82111561072b5761072a610885565b5b601f19601f8301169050602081019050919050565b6000819050602082019050919050565b600081519050919050565b600081519050919050565b6000602082019050919050565b600082825260208201905092915050565b600082825260208201905092915050565b600082825260208201905092915050565b60006107b1826107b8565b9050919050565b600073ffffffffffffffffffffffffffffffffffffffff82169050919050565b6000819050919050565b82818337600083830152505050565b60005b8381101561080f5780820151818401526020810190506107f4565b8381111561081e576000848401525b50505050565b6000600282049050600182168061083c57607f821691505b602082108114156108505761084f610856565b5b50919050565b7f4e487b7100000000000000000000000000000000000000000000000000000000600052602260045260246000fd5b7f4e487b7100000000000000000000000000000000000000000000000000000000600052604160045260246000fd5b6000601f19601f830116905091905056fea2646970667358221220c12a1e369f280efc8d75d4210bfc62125e6c85721ce60e2a7475a56be205c57864736f6c634300080000334920616d207468652077616c6c206f66206c6f766520736d61727420636f6e7472616374",
  "linkReferences": {},
  "deployedLinkReferences": {}
}